:100000000C9437000C945F000C945F000C945F001C
:100010000C945F000C945F000C945F000C945F00E4
:100020000C945F000C945F000C945F000C9403012F
:100030000C945F000C945F000C945F000C945F00C4
:100040000C947A080C945F000C9474050C94A6052B
:100050000C945F000C945F000C945F000C945F00A4
:100060000C945F000C945F000A04D6051004112460
:100070001FBECFEFD8E0DEBFCDBF11E0A0E0B1E002
:10008000E4E9F7E102C005900D92A435B107D9F774
:1000900022E0A4E5B1E001C01D92A231B207E1F770
:1000A00010E0CCE6D0E004C02297FE010E942309B4
:1000B000C836D107C9F70E946B080C94BD0B0C948D
:1000C0000000CF92DF92EF92FF92CF93DF9300D0A8
:1000D00000D000D0CDB7DEB77B0182E691E00E9470
:1000E000E40790ED980F9A3010F08D32B9F420911A
:1000F000660130916701A70162E671E0CE010196C9
:100100000E940608CE0101960E945F086B017C01E7
:10011000CE0101960E94D806C60102C08FEF9FEF64
:1001200026960FB6F894DEBF0FBECDBFDF91CF91FC
:10013000FF90EF90DF90CF900895209A229A549AE2
:10014000579A219A559A2A9828985C985F982998E6
:100150005D982A9A8FE39CE90197F1F700C00000AF
:10016000089527E030E0992787FD9095AC01022E95
:1001700002C0559547950A94E2F740FD02C02898C1
:1001800001C0289A5C9A5C982150310978F75F9AEF
:100190005F980895813029F48EE10E94B1008FE5C7
:1001A00014C0823029F48AE10E94B1008BE50DC0B1
:1001B000833029F48CE10E94B1008DE506C08430C3
:1001C00031F488E10E94B10089E50C94B1000895F2
:1001D000F89410928000E1E8F0E01082809108012C
:1001E00090910901909389008093880080818860B4
:1001F0008083808181608083EFE6F0E0808182608F
:100200008083789408951F920F920FB60F92112455
:100210002F933F934F935F936F937F938F939F930E
:10022000AF93BF93EF93FF9320915B0130915C01FB
:1002300080915F019091600182179307E8F486E94D
:100240008093560180915801863941F086E90E94D9
:10025000B10080915601809358010EC0299902C0C7
:10026000299A0AC0299880915F01909160010196B6
:100270009093600180935F0120915B0130915C015C
:1002800080915F019091600128173907E8F486E8B2
:100290008093560180915801863841F086E80E948B
:1002A000B10080915601809358010EC0299902C077
:1002B000299A0AC0299880915F0190916001019765
:1002C0009093600180935F0120915B0130915C010C
:1002D00080915F01909160012817390771F48EE8D1
:1002E00080935601809158018E3839F08EE80E9433
:1002F000B1008091560180935801209159013091AD
:100300005A0180915D0190915E0182179307E8F494
:1003100086EC8093560180915701863C41F086EC33
:100320000E94B10080915601809357010EC05D99E3
:1003300002C05D9A0AC05D9880915D0190915E0156
:10034000019690935E0180935D0120915901309157
:100350005A0180915D0190915E0128173907E8F4F8
:1003600086ED8093560180915701863D41F086EDE0
:100370000E94B10080915601809357010EC05D9993
:1003800002C05D9A0AC05D9880915D0190915E0106
:10039000019790935E0180935D0120915901309106
:1003A0005A0180915D0190915E012817390771F41F
:1003B0008EEC80935601809157018E3C39F08EEC83
:1003C0000E94B1008091560180935701FF91EF91F7
:1003D000BF91AF919F918F917F916F915F914F915D
:1003E0003F912F910F900FBE0F901F90189526E010
:1003F00040E052EC61E070E088E691E00E94120576
:1004000068EC70E082E691E00E9409070E949D007E
:100410000E94E800809106010E94CA0084E80E94C0
:10042000B10084EC0C94B1006F927F928F929F92F6
:10043000AF92BF92CF92DF92EF92FF920F931F93F2
:10044000CF93DF9300D000D000D0CDB7DEB780913E
:100450006101882309F456C182E691E00E944B08AD
:100460006AE071E0CE0101960E944607BE016F5F0F
:100470007F4F82E691E00E9402084C01CE01019676
:100480000E94D8066CE071E0CE0101960E944607FA
:10049000BE016F5F7F4F82E691E00E9402086C010F
:1004A000CE0101960E94D8066EE071E0CE01019661
:1004B0000E944607BE016F5F7F4F82E691E00E9477
:1004C00002087C01CE0101960E94D80660E171E02D
:1004D000CE0101960E944607BE016F5F7F4F82E604
:1004E00091E00E9402083C01CE0101960E94D806CC
:1004F00062E171E0CE0101960E944607BE016F5F86
:100500007F4F82E691E00E9402085C01CE010196D5
:100510000E94D80664E171E0CE0101960E94460770
:10052000BE016F5F7F4F82E691E00E9402088C015E
:10053000CE0101960E94D80666E171E0CE010196D7
:100540000E944607BE016F5F7F4F82E691E00E94E6
:100550000208CE0101960E94D80662E671E0CE0143
:1005600001960E947307B4016F5F7F4FCE01019621
:100570000E9461004C01CE0101960E94D80662E6FD
:1005800071E0CE0101960E947307B6016F5F7F4F45
:10059000CE0101960E9461006C01CE0101960E947D
:1005A000D80662E671E0CE0101960E947307B7019A
:1005B0006F5F7F4FCE0101960E9461007C01CE01EA
:1005C00001960E94D80662E671E0CE0101960E9473
:1005D0007307B3016F5F7F4FCE0101960E946100E8
:1005E000CE0101960E94D80662E671E0CE01019626
:1005F0000E947307B5016F5F7F4FCE0101960E9485
:1006000061005C01CE0101960E94D80662E671E0AD
:10061000CE0101960E947307B8016F5F7F4FCE0134
:1006200001960E9461008C01CE0101960E94D806BD
:100630008114910469F42FEFC216D20621F0D092F2
:100640005C01C0925B018FEFE816F806C9F41CC08C
:100650002CE582169104C1F48FEFC816D80641F03C
:10066000D0926001C0925F01D0925C01C0925B01A8
:100670002FEFE216F20641F0F0925E01E0925D018A
:10068000F0925A01E0925901A114B10489F48091C9
:100690005F019091600190935C0180935B01809178
:1006A0005D0190915E0190935A018093590122C09F
:1006B00083E6A816B10471F4C80101978E3F9F4FDD
:1006C000C8F4109309010093080110938900009366
:1006D000880010C082E6A816B10461F4C801019731
:1006E0008E3F9F4F38F4802F0E94CA00109307015D
:1006F0000093060165E471E082E691E00E947C07C8
:10070000109261018091540190915501019690934E
:10071000550180935401853F914008F466C068E11B
:1007200071E088E691E00E94570660915F01709148
:1007300060014AE050E088E691E00E94D2066DE157
:1007400071E088E691E00E94570660915D0170912A
:100750005E014AE050E088E691E00E94D20661E244
:1007600071E088E691E00E9457066091080170915F
:1007700009014AE050E088E691E00E94D20665E275
:1007800071E088E691E00E94570660910601709141
:1007900007014AE050E088E691E00E94D20669E253
:1007A00071E088E691E00E9457064AE050E06091CF
:1007B000580188E691E00E94CB066EE271E088E67F
:1007C00091E00E9457064AE050E06091570188E6A8
:1007D00091E00E94CB0665E471E088E691E00E941A
:1007E0005D06109255011092540126960FB6F894AA
:1007F000DEBF0FBECDBFDF91CF911F910F91FF9054
:10080000EF90DF90CF90BF90AF909F908F907F90B0
:100810006F90089565E471E082E691E00C944607DC
:1008200082E691E00C94D806CF93DF93D1E088E67E
:1008300091E00E942F04892B79F088E691E00E94D4
:100840004804C82F682F82E691E00E94C007CA3092
:1008500071F7D0936101EBCFDF91CF910895FC0147
:10086000818D228D90E0805C9F4F821B91098F7358
:1008700099270895FC01918D828D981731F0828D12
:10088000E80FF11D858D90E008958FEF9FEF08959B
:10089000FC01918D828D981761F0828DDF01A80F88
:1008A000B11D5D968C91928D9F5F9F73928F90E0AA
:1008B00008958FEF9FEF08958CEC95E0892B49F018
:1008C00084E194E0892B29F00E94CC0581110C94DD
:1008D00014040895FC01848DDF01A80FB11DA35AF3
:1008E000BF4F2C91848D90E001968F739927848F50
:1008F000A689B7892C93A089B1898C9180648C9347
:10090000938D848D981306C00288F389E02D808131
:100910008F7D80830895CF93DF93EC01888D8823AA
:10092000C9F0EA89FB89808185FD05C0A889B9895C
:100930008C9186FD0FC00FB607FCF5CF808185FF37
:10094000F2CFA889B9898C9185FFEDCFCE010E94A5
:100950006A04E7CFDF91CF910895CF92DF92FF92A3
:100960000F931F93CF93DF931F92CDB7DEB76C0128
:1009700081E0D60158968C9358975B969C915B9733
:100980005C968C915C97981307C05096ED91FC9102
:100990005197808185FD2EC0F601038D10E00F5F19
:1009A0001F4F0F731127F02EF601848DF81211C01E
:1009B0000FB607FCF9CFD6015096ED91FC915197F7
:1009C000808185FFF1CFC60169830E946A04698135
:1009D000EBCF838DE80FF11DE35AFF4F6083D60103
:1009E0005B960C935B975296ED91FC9153978081A7
:1009F00080620CC0D6015696ED91FC9157976083AA
:100A00005096ED91FC91519780818064808381E0C4
:100A100090E00F90DF91CF911F910F91FF90DF90A9
:100A2000CF900895BF92CF92DF92EF92FF92CF9333
:100A3000DF93EC016A017B01B22EE889F98982E03B
:100A40008083411581EE580761057105A1F060E0D2
:100A500079E08DE390E0A70196010E94FF08215004
:100A60003109410951095695479537952795211523
:100A700080E1380798F0E889F989108260E874E825
:100A80008EE190E0A70196010E94FF0821503109F4
:100A9000410951095695479537952795EC85FD8570
:100AA0003083EE85FF852083188EEC89FD89B08226
:100AB000EA89FB89808180618083EA89FB89808162
:100AC00088608083EA89FB89808180688083EA89E5
:100AD000FB8980818F7D8083DF91CF91FF90EF90A4
:100AE000DF90CF90BF9008951F920F920FB60F9294
:100AF00011242F938F939F93EF93FF93E0917801AD
:100B0000F09179018081E0917E01F0917F0182FD79
:100B100012C09081809181018F5F8F73209182013B
:100B2000821751F0E0918101F0E0E859FE4F958F76
:100B30008093810101C08081FF91EF919F918F91FE
:100B40002F910F900FBE0F901F9018951F920F922C
:100B50000FB60F9211242F933F934F935F936F9390
:100B60007F938F939F93AF93BF93EF93FF9388E609
:100B700091E00E946A04FF91EF91BF91AF919F9124
:100B80008F917F916F915F914F913F912F910F9036
:100B90000FBE0F901F90189588E691E00E942F04D9
:100BA00021E0892B09F420E0822F089510926B0137
:100BB00010926A0188EE93E0A0E0B0E080936C01AF
:100BC00090936D01A0936E01B0936F0187E391E064
:100BD000909369018093680185EC90E09093750192
:100BE0008093740184EC90E0909377018093760178
:100BF00080EC90E0909379018093780181EC90E013
:100C000090937B0180937A0182EC90E090937D0138
:100C100080937C0186EC90E090937F0180937E012D
:100C2000109281011092820110928301109284012E
:100C30000895CF92DF92EF92FF920F931F93CF937D
:100C4000DF937C016A01EB0100E010E00C151D054B
:100C500071F06991D701ED91FC910190F081E02D47
:100C6000C7010995892B19F00F5F1F4FEFCFC801FE
:100C7000DF91CF911F910F91FF90EF90DF90CF9078
:100C800008956115710581F0DB010D900020E9F7F1
:100C9000AD0141505109461B570BDC01ED91FC9110
:100CA0000280F381E02D099480E090E008950C9497
:100CB000410663E471E00C9441060F931F93CF93B8
:100CC000DF93EC010E9441068C01CE010E9459067F
:100CD000800F911FDF91CF911F910F9108958F92F7
:100CE0009F92AF92BF92DF92EF92FF920F931F936A
:100CF000CF93DF93CDB7DEB7A1970FB6F894DEBFE1
:100D00000FBECDBF7C01F42FD52ECB0119A222300E
:100D100008F42AE08E010F5D1F4F822E912CA12C2A
:100D2000B12C6F2F7D2DA50194010E94FF08F22F99
:100D3000D32ECA01015011096A3014F4E0E301C056
:100D4000E7E3E60FD801EC93232B242B252B49F75F
:100D5000B801C7010E944106A1960FB6F894DEBF04
:100D60000FBECDBFDF91CF911F910F91FF90EF90FC
:100D7000DF90BF90AF909F908F900895211531051F
:100D800041F4DC01ED91FC910190F081E02D642FA4
:100D900009940C946F069A01462F50E060E070E0D1
:100DA0000C94BE069A01AB0160E070E00C94BE06A4
:100DB000FC01808191810C94BF09CF93DF93EC01FA
:100DC00088819981009711F00E94BF0919821882C9
:100DD0001D821C821B821A82DF91CF9108950F938E
:100DE0001F93CF93DF93EC018B016F5F7F4F88815F
:100DF00099810E944E0A009731F0998388831B8362
:100E00000A8381E001C080E0DF91CF911F910F91B3
:100E10000895CF93DF93EC0188819981892B29F084
:100E20008A819B818617970760F4CE010E94EF06A6
:100E3000882341F08C819D81892B19F4E881F98107
:100E4000108281E0DF91CF910895EF92FF920F938E
:100E50001F93CF93DF93EC017B018A01BA010E94BB
:100E60000907811104C0CE010E94DD0607C01D8361
:100E70000C83B701888199810E94500BCE01DF91CC
:100E8000CF911F910F91FF90EF900895FC01118277
:100E9000108213821282158214826115710559F035
:100EA000FB0101900020E9F7AF0141505109461BB9
:100EB000570B0C9425070895CF93DF93EC01FB01AA
:100EC0008617970761F0608171816115710529F0BE
:100ED000448155810E94250702C00E94DD06CE0193
:100EE000DF91CF910895FC0111821082138212824A
:100EF000158214820C945C07CF93DF93EC0161158B
:100F0000710561F0FB0101900020E9F7AF0141504C
:100F10005109461B570B0E94250702C00E94DD069F
:100F2000CE01DF91CF910895EF92FF920F931F931F
:100F3000CF93DF93EC017B010C811D81611571055D
:100F400011F480E016C04115510591F0040F151FF2
:100F5000B8010E9409078823A1F3288139818C8177
:100F60009D81B701820F931F0E94500B1D830C833C
:100F700081E0DF91CF911F910F91FF90EF90089545
:100F8000CF93DF9300D0CDB7DEB769831A8241E0FB
:100F900050E0BE016F5F7F4F0E9494070F900F904B
:100FA000DF91CF910895FC01248135816217730789
:100FB00048F480819181009729F0FC01E60FF71F2A
:100FC0008081089580E008950C94D307CF93DF9338
:100FD000FC01848195814817590778F4C081D1813B
:100FE000FB0160817181CE01840F951F0E94570B18
:100FF000009719F08C1B9D0B02C08FEF9FEFDF91C4
:10100000CF91089540E050E00C94E607BF92CF9254
:10101000DF92EF92FF920F931F93CF93DF936C01B8
:101020007B01EA0189012417350720F48D2FE9019E
:10103000042F182F65E471E0C6010E944607D7010E
:1010400014968D919C911597C817D907C8F48017ED
:10105000910708F48C01D701ED91FC911197E00FF5
:10106000F11FB08010826D917C916C0F7D1FC601C5
:101070000E947C07D701ED91FC91E00FF11FB08237
:10108000C601DF91CF911F910F91FF90EF90DF90FC
:10109000CF90BF900895CF93DF93FC01C081D181A1
:1010A000209751F08881882339F0992787FD909502
:1010B0000E943F0B8993F6CFDF91CF910895FC01F9
:1010C00080819181009711F00C94180B60E070E022
:1010D000CB01089508950E94C4080E946A080E94E6
:1010E000F701CCE5D4E00E9414022097E1F30E94BE
:1010F0005C04F9CF1F920F920FB60F9211242F9319
:101100003F938F939F93AF93BF93809106029091EB
:101110000702A0910802B09109023091050223E074
:10112000230F2D3720F40196A11DB11D05C026E81F
:10113000230F0296A11DB11D209305028093060284
:1011400090930702A0930802B093090280910A02CB
:1011500090910B02A0910C02B0910D020196A11D7D
:10116000B11D80930A0290930B02A0930C02B093DE
:101170000D02BF91AF919F918F913F912F910F9051
:101180000FBE0F901F901895789484B5826084BD2F
:1011900084B5816084BD85B5826085BD85B581607B
:1011A00085BDEEE6F0E0808181608083E1E8F0E0DB
:1011B0001082808182608083808181608083E0E80A
:1011C000F0E0808181608083E1EBF0E080818460E9
:1011D0008083E0EBF0E0808181608083EAE7F0E0EB
:1011E000808184608083808182608083808181604F
:1011F00080838081806880831092C1000895A1E27D
:101200001A2EAA1BBB1BFD010DC0AA1FBB1FEE1F80
:10121000FF1FA217B307E407F50720F0A21BB30BCB
:10122000E40BF50B661F771F881F991F1A9469F747
:1012300060957095809590959B01AC01BD01CF01A3
:101240000895EE0FFF1F0590F491E02D0994CF93C0
:10125000DF938230910510F482E090E0E09110027B
:10126000F091110220E030E0A0E0B0E0309739F1D9
:101270004081518148175907B8F04817590771F450
:1012800082819381109729F013969C938E931297E5
:101290002CC0909311028093100227C021153105B4
:1012A00031F04217530718F0A901DB0101C0EF012B
:1012B0009A01BD01DF010280F381E02DD7CF211516
:1012C0003105F9F0281B390B2430310580F48A816F
:1012D0009B816115710521F0FB019383828304C01A
:1012E0009093110280931002FE01329644C0FE01D9
:1012F000E20FF31F819391932250310939832883A0
:101300003AC020910E0230910F02232B41F420911C
:1013100002013091030130930F0220930E022091BD
:101320000001309101012115310541F42DB73EB77F
:101330004091040150910501241B350BE0910E02F0
:10134000F0910F02E217F307A0F42E1B3F0B2817B2
:10135000390778F0AC014E5F5F4F2417350748F02E
:101360004E0F5F1F50930F0240930E028193919393
:1013700002C0E0E0F0E0CF01DF91CF910895CF937C
:10138000DF93009709F487C0FC0132971382128221
:10139000C0911002D0911102209781F420813181F7
:1013A000280F391F80910E0290910F028217930728
:1013B00079F5F0930F02E0930E026DC0DE0120E09C
:1013C00030E0AE17BF0750F412964D915C91139721
:1013D0009D014115510509F1DA01F3CFB383A283D1
:1013E00040815181840F951F8A179B0771F48D915D
:1013F0009C911197840F951F02969183808312967A
:101400008D919C911397938382832115310529F443
:10141000F0931102E09310023EC0D9011396FC93A1
:10142000EE9312974D915D91A40FB51FEA17FB073C
:1014300079F480819181840F951F0296D9011196CC
:101440009C938E938281938113969C938E93129793
:10145000E0E0F0E08A819B81009719F0FE01EC0149
:10146000F9CFCE01029628813981820F931F2091F6
:101470000E0230910F022817390769F4309729F4CA
:10148000109211021092100202C013821282D093A5
:101490000F02C0930E02DF91CF910895A0E0B0E05B
:1014A000E4E5FAE00C948A0BEC01CB01209719F4E7
:1014B0000E942709B8C0FE01E60FF71F9E012250C7
:1014C0003109E217F30708F4ACC0D9010D911C9162
:1014D000119706171707B8F00530110508F49FC0DB
:1014E000A801445051094617570708F498C0025004
:1014F0001109061B170B019311936D937C93CF0178
:101500000E94BF098CC05B01A01AB10A4E01800E77
:10151000911EA0911002B0911102612C712C60E01B
:1015200070E0109709F449C0A815B905C9F5ED9008
:10153000FC901197670142E0C40ED11CCA14DB0471
:1015400078F147018A189B08640142E0C40ED11C5F
:101550001296BC9012971396AC91B5E0CB16D104BD
:1015600040F0B282A38391828082D9018D939C93B3
:1015700009C00E5F1F4F0E0D1F1DF901118300835F
:10158000EB2DFA2F6115710531F0DB011396FC93F9
:10159000EE93129744C0F0931102E09310023FC003
:1015A0006D917C9111976616770608F43B01BD0199
:1015B00012960D90BC91A02DB4CF60910E02709147
:1015C0000F0268157905E9F468167906D0F44091A0
:1015D0000001509101014115510541F44DB75EB72D
:1015E0006091040170910501461B570BE417F50744
:1015F000C0F4F0930F02E0930E02F901918380830F
:101600000EC00E9427097C01009759F0A801BE0175
:101610000E94470BCE010E94BF09C70104C0CE0142
:1016200002C080E090E0CDB7DEB7EEE00C94A60BF0
:101630001F93FC0199278827BC01E894119110326F
:10164000E9F3193010F01E30C8F31B3251F01D328F
:1016500049F4689406C00E94710B610F711D811DD1
:10166000911D119110531A30B0F33EF4909580956E
:10167000709561957F4F8F4F9F4F1F9108959111E6
:10168000089581568A5108F4805285580895FB01C7
:10169000DC0102C001900D9241505040D8F70895EE
:1016A000FB01DC0101900D920020E1F70895FB01A0
:1016B00051915523A9F0BF01DC014D91451741110E
:1016C000E1F759F4CD010190002049F04D9140150A
:1016D0004111C9F3FB014111EFCF81E090E0019787
:1016E0000895592F482F372F262F660F771F881FF1
:1016F000991F660F771F881F991F620F731F841F22
:10170000951F660F771F881F991F08952F923F928C
:101710004F925F926F927F928F929F92AF92BF9201
:10172000CF92DF92EF92FF920F931F93CF93DF93AD
:10173000CDB7DEB7CA1BDB0B0FB6F894DEBF0FBE0A
:10174000CDBF09942A88398848885F846E847D8457
:101750008C849B84AA84B984C884DF80EE80FD8059
:101760000C811B81AA81B981CE0FD11D0FB6F894CF
:10177000DEBF0FBECDBFED01089510E0CCE6D0E096
:1017800004C0FE010E9423092296CE36D107C9F774
:04179000F894FFCFFB
:10179400000012028000010058024700580059005E
:1017A40046004D0052003F00212C583D002C593D6D
:1017B400002C543D002C503D002C43313D002C4363
:1017C400323D0000000000AD0419062F0448043A1D
:1017D400048B040D0A006E616E00696E66006F76FC
:0417E40066002E006D
:107800000C94343C0C94513C0C94513C0C94513CE1
:107810000C94513C0C94513C0C94513C0C94513CB4
:107820000C94513C0C94513C0C94513C0C94513CA4
:107830000C94513C0C94513C0C94513C0C94513C94
:107840000C94513C0C94513C0C94513C0C94513C84
:107850000C94513C0C94513C0C94513C0C94513C74
:107860000C94513C0C94513C11241FBECFEFD8E036
:10787000DEBFCDBF11E0A0E0B1E0ECE9FFE702C060
:1078800005900D92A230B107D9F712E0A2E0B1E065
:1078900001C01D92AD30B107E1F70E942D3D0C945F
:1078A000CC3F0C94003C982F959595959595959582
:1078B000905D8F708A307CF0282F295A8091C0000B
:1078C00085FFFCCF9093C6008091C00085FFFCCF60
:1078D0002093C6000895282F205DF0CF982F809127
:1078E000C00085FFFCCF9093C6000895EF92FF92F1
:1078F0000F931F93EE24FF2487018091C00087FD22
:1079000017C00894E11CF11C011D111D81E4E8164B
:1079100082E4F8068FE0080780E0180770F3E09132
:107920000401F091050109958091C00087FFE9CF1E
:107930008091C6001F910F91FF90EF9008950E94D3
:10794000763C982F8091C00085FFFCCF9093C600B5
:1079500091362CF490330CF09053892F089597555D
:10796000892F08951F930E949F3C182F0E949F3CCF
:107970001295107F810F1F9108951F93182F882350
:1079800021F00E94763C1150E1F71F9108951F935A
:10799000182F0E94763C803249F0809103018F5F5E
:1079A000809303018530C1F01F9108958091C0003C
:1079B00085FFFCCF84E18093C6008091C00085FFE5
:1079C000FCCF1093C6008091C00085FFFCCF80E102
:1079D0008093C6001F910895E0910401F091050184
:1079E00009951F9108950E94763C803241F0809164
:1079F00003018F5F80930301853081F008958091AA
:107A0000C00085FFFCCF84E18093C6008091C00058
:107A100085FFFCCF80E18093C6000895E0910401CA
:107A2000F09105010995089540E951E08823A1F0FE
:107A30002D9A28EE33E0FA013197F1F721503040CA
:107A4000D1F72D9828EE33E0FA013197F1F7215064
:107A50003040D1F7815061F708953F924F925F9285
:107A60006F927F928F929F92AF92BF92CF92DF924E
:107A7000EF92FF920F931F93CF93DF93000080E16B
:107A80008093C4001092C50088E18093C10086E015
:107A90008093C2005098589A259A81E00E94143D24
:107AA00024E1F22E9EE1E92E85E9D82E0FE0C02ECA
:107AB00010E1B12EAA24A394B1E49B2EA6E58A2E50
:107AC000F2E57F2EE0E26E2E79E4572E63E5462E36
:107AD00050E5352E0E94763C8033B1F18133B9F107
:107AE000803409F46FC0813409F476C0823409F41B
:107AF00085C0853409F488C0803531F1823521F1A3
:107B0000813511F1853509F485C0863509F48DC0BC
:107B1000843609F496C0843709F403C1853709F423
:107B200072C1863709F466C0809103018F5F80932C
:107B30000301853079F6E0910401F0910501099582
:107B40000E94763C803351F60E94F33CC3CF0E94E2
:107B5000763C803249F78091C00085FFFCCFF092DF
:107B6000C6008091C00085FFFCCF9092C600809136
:107B7000C00085FFFCCF8092C6008091C00085FFC9
:107B8000FCCF7092C6008091C00085FFFCCF609250
:107B9000C6008091C00085FFFCCF5092C600809146
:107BA000C00085FFFCCF4092C6008091C00085FFD9
:107BB000FCCF3092C6008091C00085FFFCCFB09210
:107BC000C60088CF0E94763C863808F4BDCF0E945C
:107BD000763C0E94F33C7ECF0E94763C803809F4CC
:107BE0009CC0813809F40BC1823809F43CC1883942
:107BF00009F48FC080E00E94C73C6CCF84E10E94F2
:107C0000BD3C0E94F33C66CF85E00E94BD3C0E94D3
:107C1000F33C60CF0E94763C809306010E94763C44
:107C2000809307010E94F33C55CF0E94763C80333D
:107C300009F41DC183E00E94BD3C80E00E94C73C66
:107C400049CF0E94763C809309020E94763C809343
:107C5000080280910C028E7F80930C020E94763C79
:107C6000853409F415C18091080290910902892B8D
:107C700089F000E010E00E94763CF801E85FFE4FDA
:107C800080830F5F1F4F80910802909109020817AF
:107C9000190788F30E94763C803209F045CF809125
:107CA0000C0280FF01C16091060170910701660F0F
:107CB000771F7093070160930601A0910802B091AD
:107CC00009021097C9F0E8E0F1E09B01AD014E0F09
:107CD0005F1FF999FECF32BD21BD819180BDFA9A17
:107CE000F99A2F5F3F4FE417F50799F76A0F7B1F4B
:107CF00070930701609306018091C00085FFFCCF5F
:107D0000F092C6008091C00085FFFCCFB092C60003
:107D1000E1CE83E00E94C73CDDCE82E00E94C73CFA
:107D2000D9CE0E94763C809309020E94763C8093D3
:107D300008028091060190910701880F991F909386
:107D40000701809306010E94763C853409F4A6C0A1
:107D500080910C028E7F80930C020E94763C8032D0
:107D600009F0B8CE8091C00085FFFCCFF092C6002C
:107D7000609108027091090261157105B9F140E046
:107D800050E080910C02A82FA170B82FB27011C0E2
:107D9000BB2309F45CC0E0910601F0910701319624
:107DA000F0930701E09306014F5F5F4F46175707B7
:107DB000E8F4AA2369F3F999FECF209106013091E6
:107DC000070132BD21BDF89A90B58091C00085FFB2
:107DD000FCCF9093C6002F5F3F4F30930701209355
:107DE00006014F5F5F4F4617570718F38091C00099
:107DF00085FDE5CE8091C00085FFF8CFE0CE81E023
:107E00000E94C73C67CE0E94763C803209F08CCE3F
:107E10008091C00085FFFCCFF092C6008091C00029
:107E200085FFFCCFE092C6008091C00085FFFCCFAB
:107E3000D092C6008091C00085FFFCCFC092C600E2
:107E40008091C00085FFFCCFB092C60043CEE09188
:107E50000601F091070194918091C00085FFFCCF4D
:107E60009093C6009CCF80E10E94C73C33CE0E9415
:107E7000763C0E94763C182F0E94763C112309F430
:107E800083C0113009F484C08FE00E94C73C22CE29
:107E900080910C02816080930C02E5CE80910C02EF
:107EA000816080930C0259CF809107018823880F4D
:107EB000880B8A2180930B02809106019091070123
:107EC000880F991F90930701809306018091080203
:107ED00080FF09C080910802909109020196909359
:107EE000090280930802F894F999FECF1127E091D6
:107EF0000601F0910701C8E0D1E08091080290915D
:107F00000902103091F40091570001700130D9F34B
:107F100003E000935700E89500915700017001308D
:107F2000D9F301E100935700E89509901990009169
:107F3000570001700130D9F301E000935700E89534
:107F40001395103498F011270091570001700130FB
:107F5000D9F305E000935700E895009157000170B0
:107F60000130D9F301E100935700E895329602976A
:107F700009F0C7CF103011F00296E5CF112480919F
:107F8000C00085FFB9CEBCCE8EE10E94C73CA2CD19
:0C7F900085E90E94C73C9ECDF894FFCF0D
:027F9C00800063
:040000030000780081
:00000001FF
